{
  "address": "0x8cc9CBc04cBE35311cE4E0745c1C25921C5DbA13",
  "abi": [
    {
      "inputs": [
        {
          "internalType": "string",
          "name": "_message",
          "type": "string"
        }
      ],
      "name": "getMessageHash",
      "outputs": [
        {
          "internalType": "bytes32",
          "name": "",
          "type": "bytes32"
        }
      ],
      "stateMutability": "pure",
      "type": "function"
    },
    {
      "inputs": [
        {
          "internalType": "bytes32",
          "name": "_message",
          "type": "bytes32"
        }
      ],
      "name": "getSignedEthMessageHash",
      "outputs": [
        {
          "internalType": "bytes32",
          "name": "",
          "type": "bytes32"
        }
      ],
      "stateMutability": "pure",
      "type": "function"
    },
    {
      "inputs": [
        {
          "internalType": "bytes32",
          "name": "_ethSignedMessageHash",
          "type": "bytes32"
        },
        {
          "internalType": "bytes",
          "name": "_signature",
          "type": "bytes"
        }
      ],
      "name": "recoverSigner",
      "outputs": [
        {
          "internalType": "address",
          "name": "",
          "type": "address"
        }
      ],
      "stateMutability": "pure",
      "type": "function"
    },
    {
      "inputs": [
        {
          "internalType": "bytes",
          "name": "sig",
          "type": "bytes"
        }
      ],
      "name": "splitSignature",
      "outputs": [
        {
          "internalType": "bytes32",
          "name": "r",
          "type": "bytes32"
        },
        {
          "internalType": "bytes32",
          "name": "s",
          "type": "bytes32"
        },
        {
          "internalType": "uint8",
          "name": "v",
          "type": "uint8"
        }
      ],
      "stateMutability": "pure",
      "type": "function"
    },
    {
      "inputs": [
        {
          "internalType": "address",
          "name": "_sender",
          "type": "address"
        },
        {
          "internalType": "string",
          "name": "_message",
          "type": "string"
        },
        {
          "internalType": "bytes",
          "name": "hash",
          "type": "bytes"
        }
      ],
      "name": "verify",
      "outputs": [
        {
          "internalType": "bool",
          "name": "",
          "type": "bool"
        }
      ],
      "stateMutability": "pure",
      "type": "function"
    }
  ],
  "transactionHash": "0xbde44de6bc2090ec74dcdb07fd67cebba139e0e7bff9f23d021dc4fa85571860",
  "args": [],
  "numDeployments": 1,
  "solcInputHash": "b72c42d015449e27c66cfe82bf0bb2a6",
  "bytecode": "0x608060405234801561001057600080fd5b50610546806100206000396000f3fe608060405234801561001057600080fd5b50600436106100575760003560e01c80632dd34f0f1461005c57806382df657d1461008457806397aba7f9146100a5578063a7bb5803146100d0578063b446f3b214610101575b600080fd5b61006f61006a3660046103ab565b610114565b60405190151581526020015b60405180910390f35b610097610092366004610429565b6101ca565b60405190815260200161007b565b6100b86100b3366004610441565b61021e565b6040516001600160a01b03909116815260200161007b565b6100e36100de366004610486565b61029d565b60408051938452602084019290925260ff169082015260600161007b565b61009761010f366004610486565b610311565b60008061012084610311565b9050600061012d826101ca565b90506000866001600160a01b0316610145838761021e565b6001600160a01b0316149050806101c05760405162461bcd60e51b815260206004820152603460248201527f54686572652077617320736f6d652070726f626c656d20696e207369676e696e60448201527319c81d1a19481cdb585c9d0818dbdb9d1c9858dd60621b60648201526084015b60405180910390fd5b9695505050505050565b6040517f19457468657265756d205369676e6564204d6573736167653a0a3332000000006020820152603c8101829052600090605c015b604051602081830303815290604052805190602001209050919050565b60008060008061022d8561029d565b6040805160008152602081018083528b905260ff8316918101919091526060810184905260808101839052929550909350915060019060a0016020604051602081039080840390855afa158015610288573d6000803e3d6000fd5b5050604051601f190151979650505050505050565b600080600083516041146102f35760405162461bcd60e51b815260206004820152601860248201527f696e76616c6964207369676e6174757265206c656e677468000000000000000060448201526064016101b7565b50505060208101516040820151606090920151909260009190911a90565b60008160405160200161020191906104c1565b600082601f830112610334578081fd5b813567ffffffffffffffff8082111561034f5761034f6104fa565b604051601f8301601f19908116603f01168101908282118183101715610377576103776104fa565b8160405283815286602085880101111561038f578485fd5b8360208701602083013792830160200193909352509392505050565b6000806000606084860312156103bf578283fd5b83356001600160a01b03811681146103d5578384fd5b9250602084013567ffffffffffffffff808211156103f1578384fd5b6103fd87838801610324565b93506040860135915080821115610412578283fd5b5061041f86828701610324565b9150509250925092565b60006020828403121561043a578081fd5b5035919050565b60008060408385031215610453578182fd5b82359150602083013567ffffffffffffffff811115610470578182fd5b61047c85828601610324565b9150509250929050565b600060208284031215610497578081fd5b813567ffffffffffffffff8111156104ad578182fd5b6104b984828501610324565b949350505050565b60008251815b818110156104e157602081860181015185830152016104c7565b818111156104ef5782828501525b509190910192915050565b634e487b7160e01b600052604160045260246000fdfea2646970667358221220bbe495c89b64a6307053ab5f26196295dd30daaa83d81fc7c07791f09630fbde64736f6c63430008040033",
  "devdoc": {
    "kind": "dev",
    "methods": {},
    "version": 1
  },
  "userdoc": {
    "kind": "user",
    "methods": {},
    "version": 1
  },
  "storageLayout": {
    "storage": [],
    "types": null
  }
}