{
  "address": "0x2ECCB4caa2Fe74125CF4b6864f004525F2B2BC71",
  "abi": [
    {
      "inputs": [
        {
          "internalType": "address",
          "name": "_address",
          "type": "address"
        }
      ],
      "name": "storeaddress",
      "outputs": [
        {
          "internalType": "bool",
          "name": "",
          "type": "bool"
        }
      ],
      "stateMutability": "nonpayable",
      "type": "function"
    }
  ],
  "transactionHash": "0xf1670732823f89961befb1943ad82bf9765210b95ce9f275d5b800c580c3ae43",
  "args": [],
  "numDeployments": 1,
  "solcInputHash": "7763245783469fd941692eb2e58d4052",
  "bytecode": "0x608060405234801561001057600080fd5b5060d38061001f6000396000f3fe6080604052348015600f57600080fd5b506004361060285760003560e01c80630b58370e14602d575b600080fd5b605d60383660046071565b6001600160a01b03166000908152602081905260408120805460ff1916600117905590565b604051901515815260200160405180910390f35b6000602082840312156081578081fd5b81356001600160a01b03811681146096578182fd5b939250505056fea2646970667358221220b8796ec6ef320723362128cfe1d680c597eeca5f61193ba7ae555adfd1817f7764736f6c63430008040033",
  "devdoc": {
    "kind": "dev",
    "methods": {},
    "version": 1
  },
  "userdoc": {
    "kind": "user",
    "methods": {},
    "version": 1
  },
  "storageLayout": {
    "storage": [
      {
        "astId": 642,
        "contract": "contracts/Storeaccounts.sol:Storeaccounts",
        "label": "storeaddresses",
        "offset": 0,
        "slot": "0",
        "type": "t_mapping(t_address,t_bool)"
      }
    ],
    "types": {
      "t_address": {
        "encoding": "inplace",
        "label": "address",
        "numberOfBytes": "20"
      },
      "t_bool": {
        "encoding": "inplace",
        "label": "bool",
        "numberOfBytes": "1"
      },
      "t_mapping(t_address,t_bool)": {
        "encoding": "mapping",
        "key": "t_address",
        "label": "mapping(address => bool)",
        "numberOfBytes": "32",
        "value": "t_bool"
      }
    }
  }
}