{
  "address": "0x913204Da6f144A7c5Da8f76059e687066d5B1F96",
  "abi": [
    {
      "anonymous": false,
      "inputs": [
        {
          "indexed": false,
          "internalType": "address",
          "name": "sender",
          "type": "address"
        },
        {
          "indexed": false,
          "internalType": "uint256",
          "name": "number",
          "type": "uint256"
        }
      ],
      "name": "Assigned",
      "type": "event"
    },
    {
      "anonymous": false,
      "inputs": [
        {
          "indexed": true,
          "internalType": "address",
          "name": "previousOwner",
          "type": "address"
        },
        {
          "indexed": true,
          "internalType": "address",
          "name": "newOwner",
          "type": "address"
        }
      ],
      "name": "OwnershipTransferred",
      "type": "event"
    },
    {
      "inputs": [
        {
          "internalType": "bytes32",
          "name": "_root",
          "type": "bytes32"
        },
        {
          "internalType": "bytes32",
          "name": "contentid",
          "type": "bytes32"
        }
      ],
      "name": "assign",
      "outputs": [],
      "stateMutability": "nonpayable",
      "type": "function"
    },
    {
      "inputs": [
        {
          "internalType": "bytes32[]",
          "name": "proof",
          "type": "bytes32[]"
        },
        {
          "internalType": "uint64",
          "name": "num",
          "type": "uint64"
        },
        {
          "internalType": "bytes32",
          "name": "leaf",
          "type": "bytes32"
        }
      ],
      "name": "check",
      "outputs": [
        {
          "internalType": "bool",
          "name": "",
          "type": "bool"
        }
      ],
      "stateMutability": "view",
      "type": "function"
    },
    {
      "inputs": [],
      "name": "owner",
      "outputs": [
        {
          "internalType": "address",
          "name": "",
          "type": "address"
        }
      ],
      "stateMutability": "view",
      "type": "function"
    },
    {
      "inputs": [],
      "name": "renounceOwnership",
      "outputs": [],
      "stateMutability": "nonpayable",
      "type": "function"
    },
    {
      "inputs": [
        {
          "internalType": "address",
          "name": "newOwner",
          "type": "address"
        }
      ],
      "name": "transferOwnership",
      "outputs": [],
      "stateMutability": "nonpayable",
      "type": "function"
    }
  ],
  "transactionHash": "0x60f93d648fe5bad89260b309dc7a01f12f359e6c51eb0c2fa82daf35abcd8a11",
  "args": [],
  "numDeployments": 2,
  "solcInputHash": "fcb614df783144c96ce4b0ecca244022",
  "bytecode": "0x6080604052600060015534801561001557600080fd5b5061001f33610024565b610074565b600080546001600160a01b038381166001600160a01b0319831681178455604051919092169283917f8be0079c531659141344cd1fd0a4f28419497f9722a3daafe3b4186f6b6457e09190a35050565b6104e3806100836000396000f3fe608060405234801561001057600080fd5b50600436106100575760003560e01c8063715018a61461005c5780638ac00bdc146100665780638da5cb5b14610079578063e5f75a3c14610099578063f2fde38b146100bc575b600080fd5b6100646100cf565b005b610064610074366004610443565b6100e3565b6000546040516001600160a01b0390911681526020015b60405180910390f35b6100ac6100a73660046103b6565b610156565b6040519015158152602001610090565b6100646100ca36600461038f565b6101c4565b6100d7610242565b6100e1600061029c565b565b6100eb610242565b600180546100f891610464565b60018181556000918252600260209081526040808420869055825484529283902084905590548251338152918201527fe086141d52d6173271d7007850f9796f2766ddf6dda2696667cbe0d5579f7526910160405180910390a15050565b6000610160610242565b67ffffffffffffffff8316600090815260026020908152604080832054815188840281810185019093528881529093926101b9928a918a9182918501908490808284376000920191909152508692508891506102ec9050565b979650505050505050565b6101cc610242565b6001600160a01b0381166102365760405162461bcd60e51b815260206004820152602660248201527f4f776e61626c653a206e6577206f776e657220697320746865207a65726f206160448201526564647265737360d01b60648201526084015b60405180910390fd5b61023f8161029c565b50565b6000546001600160a01b031633146100e15760405162461bcd60e51b815260206004820181905260248201527f4f776e61626c653a2063616c6c6572206973206e6f7420746865206f776e6572604482015260640161022d565b600080546001600160a01b038381166001600160a01b0319831681178455604051919092169283917f8be0079c531659141344cd1fd0a4f28419497f9722a3daafe3b4186f6b6457e09190a35050565b6000826102f98584610302565b14949350505050565b600081815b8451811015610355576103418286838151811061033457634e487b7160e01b600052603260045260246000fd5b602002602001015161035d565b91508061034d8161047c565b915050610307565b509392505050565b6000818310610379576000828152602084905260409020610388565b60008381526020839052604090205b9392505050565b6000602082840312156103a0578081fd5b81356001600160a01b0381168114610388578182fd5b600080600080606085870312156103cb578283fd5b843567ffffffffffffffff808211156103e2578485fd5b818701915087601f8301126103f5578485fd5b813581811115610403578586fd5b8860208260051b8501011115610417578586fd5b60209283019650945090860135908082168214610432578384fd5b509396929550929360400135925050565b60008060408385031215610455578182fd5b50508035926020909101359150565b6000821982111561047757610477610497565b500190565b600060001982141561049057610490610497565b5060010190565b634e487b7160e01b600052601160045260246000fdfea26469706673582212204fa43a2cdd3bef926151dfa8edc510024ebec53f767af3367d629dcb5cf5e7ad64736f6c63430008040033",
  "devdoc": {
    "kind": "dev",
    "methods": {
      "owner()": {
        "details": "Returns the address of the current owner."
      },
      "renounceOwnership()": {
        "details": "Leaves the contract without owner. It will not be possible to call `onlyOwner` functions anymore. Can only be called by the current owner. NOTE: Renouncing ownership will leave the contract without an owner, thereby removing any functionality that is only available to the owner."
      },
      "transferOwnership(address)": {
        "details": "Transfers ownership of the contract to a new account (`newOwner`). Can only be called by the current owner."
      }
    },
    "version": 1
  },
  "userdoc": {
    "kind": "user",
    "methods": {},
    "version": 1
  },
  "storageLayout": {
    "storage": [
      {
        "astId": 7,
        "contract": "contracts/Usercontract.sol:Usercontract",
        "label": "_owner",
        "offset": 0,
        "slot": "0",
        "type": "t_address"
      },
      {
        "astId": 651,
        "contract": "contracts/Usercontract.sol:Usercontract",
        "label": "count",
        "offset": 0,
        "slot": "1",
        "type": "t_uint256"
      },
      {
        "astId": 655,
        "contract": "contracts/Usercontract.sol:Usercontract",
        "label": "merkleroots",
        "offset": 0,
        "slot": "2",
        "type": "t_mapping(t_uint256,t_bytes32)"
      },
      {
        "astId": 659,
        "contract": "contracts/Usercontract.sol:Usercontract",
        "label": "contentids",
        "offset": 0,
        "slot": "3",
        "type": "t_mapping(t_uint256,t_bytes32)"
      }
    ],
    "types": {
      "t_address": {
        "encoding": "inplace",
        "label": "address",
        "numberOfBytes": "20"
      },
      "t_bytes32": {
        "encoding": "inplace",
        "label": "bytes32",
        "numberOfBytes": "32"
      },
      "t_mapping(t_uint256,t_bytes32)": {
        "encoding": "mapping",
        "key": "t_uint256",
        "label": "mapping(uint256 => bytes32)",
        "numberOfBytes": "32",
        "value": "t_bytes32"
      },
      "t_uint256": {
        "encoding": "inplace",
        "label": "uint256",
        "numberOfBytes": "32"
      }
    }
  }
}