{
  "_format": "hh-sol-artifact-1",
  "contractName": "Usercontract",
  "sourceName": "contracts/Usercontract.sol",
  "abi": [
    {
      "inputs": [
        {
          "internalType": "string",
          "name": "_contentid",
          "type": "string"
        },
        {
          "internalType": "bytes32",
          "name": "_merkleroot",
          "type": "bytes32"
        }
      ],
      "stateMutability": "nonpayable",
      "type": "constructor"
    },
    {
      "anonymous": false,
      "inputs": [
        {
          "indexed": false,
          "internalType": "address",
          "name": "sender",
          "type": "address"
        },
        {
          "indexed": true,
          "internalType": "uint256",
          "name": "number",
          "type": "uint256"
        },
        {
          "indexed": false,
          "internalType": "bool",
          "name": "isgranted",
          "type": "bool"
        }
      ],
      "name": "Accessed",
      "type": "event"
    },
    {
      "anonymous": false,
      "inputs": [
        {
          "indexed": false,
          "internalType": "address",
          "name": "sender",
          "type": "address"
        },
        {
          "indexed": true,
          "internalType": "uint256",
          "name": "number",
          "type": "uint256"
        },
        {
          "indexed": false,
          "internalType": "bytes32",
          "name": "merkleroots",
          "type": "bytes32"
        },
        {
          "indexed": false,
          "internalType": "string",
          "name": "contentid",
          "type": "string"
        }
      ],
      "name": "Assigned",
      "type": "event"
    },
    {
      "anonymous": false,
      "inputs": [
        {
          "indexed": false,
          "internalType": "address",
          "name": "sender",
          "type": "address"
        },
        {
          "indexed": true,
          "internalType": "string",
          "name": "contentid",
          "type": "string"
        },
        {
          "indexed": true,
          "internalType": "bytes32",
          "name": "merkleroot",
          "type": "bytes32"
        }
      ],
      "name": "Getdata",
      "type": "event"
    },
    {
      "anonymous": false,
      "inputs": [
        {
          "indexed": true,
          "internalType": "address",
          "name": "previousOwner",
          "type": "address"
        },
        {
          "indexed": true,
          "internalType": "address",
          "name": "newOwner",
          "type": "address"
        }
      ],
      "name": "OwnershipTransferred",
      "type": "event"
    },
    {
      "inputs": [],
      "name": "_allowed",
      "outputs": [
        {
          "internalType": "bool",
          "name": "",
          "type": "bool"
        }
      ],
      "stateMutability": "view",
      "type": "function"
    },
    {
      "inputs": [
        {
          "internalType": "bytes32",
          "name": "_root",
          "type": "bytes32"
        },
        {
          "internalType": "string",
          "name": "contentid",
          "type": "string"
        }
      ],
      "name": "assign",
      "outputs": [],
      "stateMutability": "nonpayable",
      "type": "function"
    },
    {
      "inputs": [
        {
          "internalType": "bytes32[]",
          "name": "proof",
          "type": "bytes32[]"
        },
        {
          "internalType": "uint64",
          "name": "num",
          "type": "uint64"
        },
        {
          "internalType": "bytes32[]",
          "name": "leaf",
          "type": "bytes32[]"
        }
      ],
      "name": "check",
      "outputs": [
        {
          "internalType": "bool",
          "name": "",
          "type": "bool"
        }
      ],
      "stateMutability": "view",
      "type": "function"
    },
    {
      "inputs": [
        {
          "internalType": "uint256",
          "name": "_count",
          "type": "uint256"
        }
      ],
      "name": "getdata",
      "outputs": [
        {
          "internalType": "bytes32",
          "name": "",
          "type": "bytes32"
        },
        {
          "internalType": "string",
          "name": "",
          "type": "string"
        }
      ],
      "stateMutability": "nonpayable",
      "type": "function"
    },
    {
      "inputs": [
        {
          "internalType": "address",
          "name": "_account",
          "type": "address"
        }
      ],
      "name": "giveaccess",
      "outputs": [],
      "stateMutability": "nonpayable",
      "type": "function"
    },
    {
      "inputs": [],
      "name": "owner",
      "outputs": [
        {
          "internalType": "address",
          "name": "",
          "type": "address"
        }
      ],
      "stateMutability": "view",
      "type": "function"
    },
    {
      "inputs": [],
      "name": "renounceOwnership",
      "outputs": [],
      "stateMutability": "nonpayable",
      "type": "function"
    },
    {
      "inputs": [
        {
          "internalType": "address",
          "name": "_account",
          "type": "address"
        }
      ],
      "name": "revokeaccess",
      "outputs": [],
      "stateMutability": "nonpayable",
      "type": "function"
    },
    {
      "inputs": [
        {
          "internalType": "address",
          "name": "newOwner",
          "type": "address"
        }
      ],
      "name": "transferOwnership",
      "outputs": [],
      "stateMutability": "nonpayable",
      "type": "function"
    }
  ],
  "bytecode": "0x608060405260006001553480156200001657600080fd5b5060405162001fe238038062001fe283398181016040528101906200003c919062000511565b6200005c62000050620001de60201b60201c565b620001e660201b60201c565b6200006e8183620002aa60201b60201c565b6000732eccb4caa2fe74125cf4b6864f004525f2b2bc7190506000808273ffffffffffffffffffffffffffffffffffffffff1633604051602401620000b49190620005bc565b6040516020818303038152906040527f0b58370e000000000000000000000000000000000000000000000000000000007bffffffffffffffffffffffffffffffffffffffffffffffffffffffff19166020820180517bffffffffffffffffffffffffffffffffffffffffffffffffffffffff838183161783525050505060405162000140919062000626565b6000604051808303816000865af19150503d80600081146200017f576040519150601f19603f3d011682016040523d82523d6000602084013e62000184565b606091505b50915091506001151582151514620001d3576040517f08c379a0000000000000000000000000000000000000000000000000000000008152600401620001ca90620006c6565b60405180910390fd5b505050505062000b1a565b600033905090565b60008060009054906101000a900473ffffffffffffffffffffffffffffffffffffffff169050816000806101000a81548173ffffffffffffffffffffffffffffffffffffffff021916908373ffffffffffffffffffffffffffffffffffffffff1602179055508173ffffffffffffffffffffffffffffffffffffffff168173ffffffffffffffffffffffffffffffffffffffff167f8be0079c531659141344cd1fd0a4f28419497f9722a3daafe3b4186f6b6457e060405160405180910390a35050565b60018054620002ba919062000721565b6001819055508160036000600154815260200190815260200160002081905550806004600060015481526020019081526020016000209081620002fe91906200099d565b506001547f4560200b6bb096dc05af2d3eb47d14c07bc401097dbf6e54592a61ee701a72b2338484604051620003379392919062000ad6565b60405180910390a25050565b6000604051905090565b600080fd5b600080fd5b600080fd5b600080fd5b6000601f19601f8301169050919050565b7f4e487b7100000000000000000000000000000000000000000000000000000000600052604160045260246000fd5b620003ac8262000361565b810181811067ffffffffffffffff82111715620003ce57620003cd62000372565b5b80604052505050565b6000620003e362000343565b9050620003f18282620003a1565b919050565b600067ffffffffffffffff82111562000414576200041362000372565b5b6200041f8262000361565b9050602081019050919050565b60005b838110156200044c5780820151818401526020810190506200042f565b60008484015250505050565b60006200046f6200046984620003f6565b620003d7565b9050828152602081018484840111156200048e576200048d6200035c565b5b6200049b8482856200042c565b509392505050565b600082601f830112620004bb57620004ba62000357565b5b8151620004cd84826020860162000458565b91505092915050565b6000819050919050565b620004eb81620004d6565b8114620004f757600080fd5b50565b6000815190506200050b81620004e0565b92915050565b600080604083850312156200052b576200052a6200034d565b5b600083015167ffffffffffffffff8111156200054c576200054b62000352565b5b6200055a85828601620004a3565b92505060206200056d85828601620004fa565b9150509250929050565b600073ffffffffffffffffffffffffffffffffffffffff82169050919050565b6000620005a48262000577565b9050919050565b620005b68162000597565b82525050565b6000602082019050620005d36000830184620005ab565b92915050565b600081519050919050565b600081905092915050565b6000620005fc82620005d9565b620006088185620005e4565b93506200061a8185602086016200042c565b80840191505092915050565b6000620006348284620005ef565b915081905092915050565b600082825260208201905092915050565b7f5468652063616c6c20746f207468652066756e6374696f6e206861732066616960008201527f6c65640000000000000000000000000000000000000000000000000000000000602082015250565b6000620006ae6023836200063f565b9150620006bb8262000650565b604082019050919050565b60006020820190508181036000830152620006e1816200069f565b9050919050565b6000819050919050565b7f4e487b7100000000000000000000000000000000000000000000000000000000600052601160045260246000fd5b60006200072e82620006e8565b91506200073b83620006e8565b9250828201905080821115620007565762000755620006f2565b5b92915050565b600081519050919050565b7f4e487b7100000000000000000000000000000000000000000000000000000000600052602260045260246000fd5b60006002820490506001821680620007af57607f821691505b602082108103620007c557620007c462000767565b5b50919050565b60008190508160005260206000209050919050565b60006020601f8301049050919050565b600082821b905092915050565b6000600883026200082f7fffffffffffffffffffffffffffffffffffffffffffffffffffffffffffffffff82620007f0565b6200083b8683620007f0565b95508019841693508086168417925050509392505050565b6000819050919050565b60006200087e620008786200087284620006e8565b62000853565b620006e8565b9050919050565b6000819050919050565b6200089a836200085d565b620008b2620008a98262000885565b848454620007fd565b825550505050565b600090565b620008c9620008ba565b620008d68184846200088f565b505050565b5b81811015620008fe57620008f2600082620008bf565b600181019050620008dc565b5050565b601f8211156200094d576200091781620007cb565b6200092284620007e0565b8101602085101562000932578190505b6200094a6200094185620007e0565b830182620008db565b50505b505050565b600082821c905092915050565b6000620009726000198460080262000952565b1980831691505092915050565b60006200098d83836200095f565b9150826002028217905092915050565b620009a8826200075c565b67ffffffffffffffff811115620009c457620009c362000372565b5b620009d0825462000796565b620009dd82828562000902565b600060209050601f83116001811462000a15576000841562000a00578287015190505b62000a0c85826200097f565b86555062000a7c565b601f19841662000a2586620007cb565b60005b8281101562000a4f5784890151825560018201915060208501945060208101905062000a28565b8683101562000a6f578489015162000a6b601f8916826200095f565b8355505b6001600288020188555050505b505050505050565b62000a8f81620004d6565b82525050565b600062000aa2826200075c565b62000aae81856200063f565b935062000ac08185602086016200042c565b62000acb8162000361565b840191505092915050565b600060608201905062000aed6000830186620005ab565b62000afc602083018562000a84565b818103604083015262000b10818462000a95565b9050949350505050565b6114b88062000b2a6000396000f3fe608060405234801561001057600080fd5b50600436106100935760003560e01c80638da5cb5b116100665780638da5cb5b1461011f578063cbf05a561461013d578063e2cee25f14610159578063e92ee43b14610175578063f2fde38b1461019357610093565b8063059232b9146100985780630ad2b739146100b45780633bc1fec0146100e5578063715018a614610115575b600080fd5b6100b260048036038101906100ad919061099c565b6101af565b005b6100ce60048036038101906100c991906109ff565b610212565b6040516100dc929190610ad5565b60405180910390f35b6100ff60048036038101906100fa9190610baa565b610399565b60405161010c9190610c5a565b60405180910390f35b61011d6104c4565b005b6101276104d8565b6040516101349190610c84565b60405180910390f35b61015760048036038101906101529190610dfb565b610501565b005b610173600480360381019061016e919061099c565b610594565b005b61017d6105f7565b60405161018a9190610c5a565b60405180910390f35b6101ad60048036038101906101a8919061099c565b6106ae565b005b6101b7610731565b6000600260008373ffffffffffffffffffffffffffffffffffffffff1673ffffffffffffffffffffffffffffffffffffffff16815260200190815260200160002060006101000a81548160ff02191690831515021790555050565b6000606060006102206105f7565b90506001151581151514610269576040517f08c379a000000000000000000000000000000000000000000000000000000000815260040161026090610ec9565b60405180910390fd5b60036000858152602001908152602001600020546004600086815260200190815260200160002060405161029d9190610fec565b60405180910390207f7f39307608a7d6cddf79b9c3e186ee70fa0a3b11691eeb594667cc7e339e27ea336040516102d49190610c84565b60405180910390a360036000858152602001908152602001600020546004600086815260200190815260200160002080805461030f90610f18565b80601f016020809104026020016040519081016040528092919081815260200182805461033b90610f18565b80156103885780601f1061035d57610100808354040283529160200191610388565b820191906000526020600020905b81548152906001019060200180831161036b57829003601f168201915b505050505090509250925050915091565b6000806103a46105f7565b905060011515811515146103ed576040517f08c379a00000000000000000000000000000000000000000000000000000000081526004016103e490610ec9565b60405180910390fd5b6000600360008767ffffffffffffffff16815260200190815260200160002054905060006001905060005b60048110156104b45760006104888b8b80806020026020016040519081016040528093929190818152602001838360200280828437600081840152601f19601f82011690508083019250505050505050858a8a8681811061047c5761047b611003565b5b905060200201356107af565b905060001515811515036104a05760009250506104b4565b5080806104ac90611061565b915050610418565b5080935050505095945050505050565b6104cc610731565b6104d660006107c6565b565b60008060009054906101000a900473ffffffffffffffffffffffffffffffffffffffff16905090565b6001805461050f91906110a9565b60018190555081600360006001548152602001908152602001600020819055508060046000600154815260200190815260200160002090816105519190611274565b506001547f4560200b6bb096dc05af2d3eb47d14c07bc401097dbf6e54592a61ee701a72b233848460405161058893929190611346565b60405180910390a25050565b61059c610731565b6001600260008373ffffffffffffffffffffffffffffffffffffffff1673ffffffffffffffffffffffffffffffffffffffff16815260200190815260200160002060006101000a81548160ff02191690831515021790555050565b60006106016104d8565b73ffffffffffffffffffffffffffffffffffffffff1661061f61088a565b73ffffffffffffffffffffffffffffffffffffffff1614806106985750600115156002600061064c61088a565b73ffffffffffffffffffffffffffffffffffffffff1673ffffffffffffffffffffffffffffffffffffffff16815260200190815260200160002060009054906101000a900460ff161515145b156106a657600190506106ab565b600090505b90565b6106b6610731565b600073ffffffffffffffffffffffffffffffffffffffff168173ffffffffffffffffffffffffffffffffffffffff1603610725576040517f08c379a000000000000000000000000000000000000000000000000000000000815260040161071c906113f6565b60405180910390fd5b61072e816107c6565b50565b61073961088a565b73ffffffffffffffffffffffffffffffffffffffff166107576104d8565b73ffffffffffffffffffffffffffffffffffffffff16146107ad576040517f08c379a00000000000000000000000000000000000000000000000000000000081526004016107a490611462565b60405180910390fd5b565b6000826107bc8584610892565b1490509392505050565b60008060009054906101000a900473ffffffffffffffffffffffffffffffffffffffff169050816000806101000a81548173ffffffffffffffffffffffffffffffffffffffff021916908373ffffffffffffffffffffffffffffffffffffffff1602179055508173ffffffffffffffffffffffffffffffffffffffff168173ffffffffffffffffffffffffffffffffffffffff167f8be0079c531659141344cd1fd0a4f28419497f9722a3daafe3b4186f6b6457e060405160405180910390a35050565b600033905090565b60008082905060005b84518110156108dd576108c8828683815181106108bb576108ba611003565b5b60200260200101516108e8565b915080806108d590611061565b91505061089b565b508091505092915050565b6000818310610900576108fb8284610913565b61090b565b61090a8383610913565b5b905092915050565b600082600052816020526040600020905092915050565b6000604051905090565b600080fd5b600080fd5b600073ffffffffffffffffffffffffffffffffffffffff82169050919050565b60006109698261093e565b9050919050565b6109798161095e565b811461098457600080fd5b50565b60008135905061099681610970565b92915050565b6000602082840312156109b2576109b1610934565b5b60006109c084828501610987565b91505092915050565b6000819050919050565b6109dc816109c9565b81146109e757600080fd5b50565b6000813590506109f9816109d3565b92915050565b600060208284031215610a1557610a14610934565b5b6000610a23848285016109ea565b91505092915050565b6000819050919050565b610a3f81610a2c565b82525050565b600081519050919050565b600082825260208201905092915050565b60005b83811015610a7f578082015181840152602081019050610a64565b60008484015250505050565b6000601f19601f8301169050919050565b6000610aa782610a45565b610ab18185610a50565b9350610ac1818560208601610a61565b610aca81610a8b565b840191505092915050565b6000604082019050610aea6000830185610a36565b8181036020830152610afc8184610a9c565b90509392505050565b600080fd5b600080fd5b600080fd5b60008083601f840112610b2a57610b29610b05565b5b8235905067ffffffffffffffff811115610b4757610b46610b0a565b5b602083019150836020820283011115610b6357610b62610b0f565b5b9250929050565b600067ffffffffffffffff82169050919050565b610b8781610b6a565b8114610b9257600080fd5b50565b600081359050610ba481610b7e565b92915050565b600080600080600060608688031215610bc657610bc5610934565b5b600086013567ffffffffffffffff811115610be457610be3610939565b5b610bf088828901610b14565b95509550506020610c0388828901610b95565b935050604086013567ffffffffffffffff811115610c2457610c23610939565b5b610c3088828901610b14565b92509250509295509295909350565b60008115159050919050565b610c5481610c3f565b82525050565b6000602082019050610c6f6000830184610c4b565b92915050565b610c7e8161095e565b82525050565b6000602082019050610c996000830184610c75565b92915050565b610ca881610a2c565b8114610cb357600080fd5b50565b600081359050610cc581610c9f565b92915050565b600080fd5b7f4e487b7100000000000000000000000000000000000000000000000000000000600052604160045260246000fd5b610d0882610a8b565b810181811067ffffffffffffffff82111715610d2757610d26610cd0565b5b80604052505050565b6000610d3a61092a565b9050610d468282610cff565b919050565b600067ffffffffffffffff821115610d6657610d65610cd0565b5b610d6f82610a8b565b9050602081019050919050565b82818337600083830152505050565b6000610d9e610d9984610d4b565b610d30565b905082815260208101848484011115610dba57610db9610ccb565b5b610dc5848285610d7c565b509392505050565b600082601f830112610de257610de1610b05565b5b8135610df2848260208601610d8b565b91505092915050565b60008060408385031215610e1257610e11610934565b5b6000610e2085828601610cb6565b925050602083013567ffffffffffffffff811115610e4157610e40610939565b5b610e4d85828601610dcd565b9150509250929050565b7f5468652073656e646572206973206e6f74207065726d697373696f6e6564207460008201527f6f2063616c6c20746869732066756e6374696f6e000000000000000000000000602082015250565b6000610eb3603483610a50565b9150610ebe82610e57565b604082019050919050565b60006020820190508181036000830152610ee281610ea6565b9050919050565b7f4e487b7100000000000000000000000000000000000000000000000000000000600052602260045260246000fd5b60006002820490506001821680610f3057607f821691505b602082108103610f4357610f42610ee9565b5b50919050565b600081905092915050565b60008190508160005260206000209050919050565b60008154610f7681610f18565b610f808186610f49565b94506001821660008114610f9b5760018114610fb057610fe3565b60ff1983168652811515820286019350610fe3565b610fb985610f54565b60005b83811015610fdb57815481890152600182019150602081019050610fbc565b838801955050505b50505092915050565b6000610ff88284610f69565b915081905092915050565b7f4e487b7100000000000000000000000000000000000000000000000000000000600052603260045260246000fd5b7f4e487b7100000000000000000000000000000000000000000000000000000000600052601160045260246000fd5b600061106c826109c9565b91507fffffffffffffffffffffffffffffffffffffffffffffffffffffffffffffffff820361109e5761109d611032565b5b600182019050919050565b60006110b4826109c9565b91506110bf836109c9565b92508282019050808211156110d7576110d6611032565b5b92915050565b60006020601f8301049050919050565b600082821b905092915050565b60006008830261112a7fffffffffffffffffffffffffffffffffffffffffffffffffffffffffffffffff826110ed565b61113486836110ed565b95508019841693508086168417925050509392505050565b6000819050919050565b600061117161116c611167846109c9565b61114c565b6109c9565b9050919050565b6000819050919050565b61118b83611156565b61119f61119782611178565b8484546110fa565b825550505050565b600090565b6111b46111a7565b6111bf818484611182565b505050565b5b818110156111e3576111d86000826111ac565b6001810190506111c5565b5050565b601f821115611228576111f981610f54565b611202846110dd565b81016020851015611211578190505b61122561121d856110dd565b8301826111c4565b50505b505050565b600082821c905092915050565b600061124b6000198460080261122d565b1980831691505092915050565b6000611264838361123a565b9150826002028217905092915050565b61127d82610a45565b67ffffffffffffffff81111561129657611295610cd0565b5b6112a08254610f18565b6112ab8282856111e7565b600060209050601f8311600181146112de57600084156112cc578287015190505b6112d68582611258565b86555061133e565b601f1984166112ec86610f54565b60005b82811015611314578489015182556001820191506020850194506020810190506112ef565b86831015611331578489015161132d601f89168261123a565b8355505b6001600288020188555050505b505050505050565b600060608201905061135b6000830186610c75565b6113686020830185610a36565b818103604083015261137a8184610a9c565b9050949350505050565b7f4f776e61626c653a206e6577206f776e657220697320746865207a65726f206160008201527f6464726573730000000000000000000000000000000000000000000000000000602082015250565b60006113e0602683610a50565b91506113eb82611384565b604082019050919050565b6000602082019050818103600083015261140f816113d3565b9050919050565b7f4f776e61626c653a2063616c6c6572206973206e6f7420746865206f776e6572600082015250565b600061144c602083610a50565b915061145782611416565b602082019050919050565b6000602082019050818103600083015261147b8161143f565b905091905056fea2646970667358221220f318588db9a623111d66878b5ca249c7b42597b0e4d839f6d49d0c88c54a50cc64736f6c63430008120033",
  "linkReferences": {},
  "deployedLinkReferences": {}
}